:020000040000FA
:020000003428A2
:100008007E1480312100101C0A280B281428200097
:10001800101C0F28102814288731BA27803132285D
:100028000B1F1728182832282100111D1C281D28ED
:1000380024282000111D212822282428322832288B
:100048002100911D2828292832282000110832284B
:100058003228322832283228322832287E100900E5
:1000680035282B30840086308500A030860000308B
:10007800870027308731A82780315C308400003022
:10008800850009308731AE27803120308400013067
:1000980085002A308731AE2780317E102000542811
:1000A8002000D801D90187312F2780318B170B17F2
:1000B800E530F0000730F1008731B427803187310F
:1000C8001F27803129302000D3009630D2007F309E
:1000D800890B6C28D20B6C28D30B6C288531A8258A
:1000E8008031853175258031013086317226803125
:1000F8007D2887313F27803120005108D7005008DC
:10010800D6004F08D5004E08D4005708F30056080B
:10011800F2005508F1005408F0008231BD22803108
:1001280071082000D9007008D8001930D200520890
:10013800DB000330D2005208DA005B08D200520814
:10014800A2005A08D3005308A3000A30F90000306F
:10015800FA00E830F0000330F1005908F3005808BD
:10016800F2008331512380317108FC007008FB00D4
:100178008331BA23803179088231262280310F30C9
:100188002000D2005208DB075B08D2005208A20008
:100198005A08D3005308A3000A30F9000030FA00C7
:1001A8006430F0000030F1005908F3005808F200FC
:1001B8008331512380317108FC007008FB008331C2
:1001C800BA23803179088231262280310F3020000D
:1001D800D2005208DB075A08013ED2005208F30049
:1001E8005B0885313B25803100308431BE24803165
:1001F80008302000D2005208DB075B08D200520802
:10020800A2005A08D3005308A3000A30F9000030AE
:10021800FA000A30F0000030F1005908F3005808DD
:10022800F2008331512380317108FC007008FB0013
:100238008331BA23803179088231262280310F3008
:100248002000D2005208DB075B08D2005208A20047
:100258005A08D3005308A3000A30F9000030FA0006
:100268005908FC005808FB008331BA23803179080B
:100278008231262280310F302000D2005208DB075D
:100288005A08D2005208F3005B0885313B258031BB
:1002980001308431BE24803108302000D200520859
:1002A800DB075B08D2005208A2005A08D3005308A3
:1002B800A3000A3082312622803152302000D30038
:1002C8002B30D2000030890B6729D20B6729D30B5A
:1002D800672900007D287D2834282000BB003B08C2
:1002E8000319772978298C29B61F7B297C298C2921
:1002F8003309BD003409BE003509BF003609C00006
:10030800BD0A0319BE0A0319BF0A0319C00A9429B2
:100318003608C0003508BF003408BE003308BD00E9
:100328003608350434043304031D9B299C29A62967
:100338000030B6000030B5000030B4000030B30023
:10034800252A252A9630B7003708BC00B72901307E
:10035800B7003708BC070130C036BF0CBE0CBD0C57
:10036800890BB029B729FE304005031DBC29BD29DA
:10037800AB29D229D2290130B7003708BC07013090
:10038800BD070030BE3D0030BF3D0030C03D0130EC
:10039800C036BF0CBE0CBD0C890BCC29FF30400504
:1003A800031DD729D829BF29E429E4290130BC0233
:1003B8000130BD35BE0DBF0DC00D890BDD29E42907
:1003C800BF1BE729E829EF2902303C020318ED2971
:1003D800EE29DA29EF293C18F229F329FB29FF3005
:1003E800BD05FF30BE057F30BF05FF30C0050310D7
:1003F800BC0C3C08B700B801B901BA011830B735D0
:10040800B80DB90DBA0D890B032A3708BD04380891
:10041800BE043908BF043A08C0043B080319152A6A
:10042800162A1C2AB61F192A1A2A1C2AC0171C2A7F
:100438004008B6003F08B5003E08B4003D08B300C8
:10044800252A08002000A6000E302602031C2D2AAB
:100458002E2A332A0D30A4002408A600332A2308A4
:10046800A4002408F300220885313B258231863117
:100478009026823178308631EA26823140308631C2
:10048800EA2682312000A7010B302702031C4D2ADF
:100498004E2A502A732A732A2708A4000130A4354B
:1004A800890B532A1630A5002508F0002608863146
:1004B800AB268231003E2000240787315C27823139
:1004C8008631EA26823101302000A4002408A707DB
:1004D8000B302702031C712A722A502A732A86318C
:1004E800FD26823120002308013EA4002408F300E1
:1004F800220885313B258231863190268231783039
:100508008631EA26823140308631EA26823120005F
:10051800A8010B302802031C922A932A952AB92A8B
:10052800B92A2808A4000130A435890B982A163066
:10053800A5002508F00026088631AB268231003E4A
:10054800200024078631C426823176088631EA26BF
:10055800823101302000A4002408A8070B302802AB
:10056800031CB72AB82A952AB92A8631FD26823172
:1005780008007008F4007108F5007208F6007308A6
:10058800F7000310760D770DF8007808FA007A085E
:10059800031DCF2AD02ADA2A0030F3000030F200F7
:1005A8000030F1000030F000502B502B7008F400A0
:1005B8007108F5007208F6007308F7001F30F73667
:1005C800F60CF50CF40C890BE32A7408F80078088B
:1005D800F900F217FF30F005FF30F105FF30F205A2
:1005E8000030F3059630FA02FA1FFB2AFC2A1F2B6B
:1005F8007A08803A973E0318022B032B0E2B003003
:10060800F3000030F2000030F1000030F000502B11
:10061800502B0E2B0130F336F20CF10CF00C890B39
:100628000F2B0130F4007408FA07031D1C2B1D2B37
:100638000E2B402B402B20307A02031C242B252B19
:10064800392B0030F3000030F2000030F1000030A8
:10065800F000502B502B392B0130F035F10DF20DF5
:10066800F30D890B312B0130FA027A08031D3D2B5B
:100678003E2B302B402B402B79080319442B452B5C
:10068800502BF009F109F209F309F00A0319F10AEC
:100698000319F20A0319F30A0800F601F11F552B92
:1006A800562B5E2BF009F109F00A0319F10AF6013D
:1006B800F60A5E2BF31F612B622B6C2BF209F309F0
:1006C800F20A0319F30A0130F4007408F6066C2BD9
:1006D800F701F801700871040319732B742BA92B07
:1006E800F501F50A812B0130F035F10D890B782BD6
:1006F8000130F4007408F507812BF11F842B852B3A
:10070800772B872B872B0130F735F80D890B882B32
:1007180071087302031D922B70087202031C952B3B
:10072800962B9C2B7008F2027108F33B77149C2BD4
:100738000130F136F00C890B9D2B0130F502031DB9
:10074800A62BA72B872BA92BA92B76080319AD2B32
:10075800AE2BB42BF709F809F70A0319F80AB42BDA
:100768007808F1007708F000B92B08002000A101F3
:10077800FC1FBF2BC02BC82BFB09FC09FB0A031964
:10078800FC0AA101A10AC82BFA1FCB2BCC2BD22B18
:10079800F909FA09F90A0319FA0AD22B79087A042D
:1007A8000319D72BD82B072CA001A00AE52B013061
:1007B800F935FA0D890BDC2B0130FD007D08A00707
:1007C800E52BFA1FE82BE92BDB2BEB2BEB2B7A081D
:1007D8007C02031DF12B79087B02031CF42BF52BFB
:1007E800FA2B7908FB027A08FC3BFA2B0130FA361F
:1007F800F90C890BFB2B0130A002031D042C052CDE
:10080800EB2B072C072C210803190B2C0C2C122C72
:10081800FB09FC09FB0A0319FC0A122C7C08FA00E4
:100828007B08F900172C08002000C9004908863108
:100838000126843120002608C5002708C600C70104
:10084800C8014808B6004708B5004608B40045087E
:10085800B300003081317121843120003608CD0089
:100868003508CC003408CB003308CA004D08F30023
:100878004C08F2004B08F1004A08F0008231BD2212
:10088800843171082000C6007008C500C535C60D42
:1008980045084D3EC7009530463DC8004708B3009F
:1008A8004808B400890D893B8909B500B6000130B4
:1008B80081317121843120003608CD003508CC0003
:1008C8003408CB003308CA004D08C4004C08C300E4
:1008D8004B08C2004A08C100712C0800FB00863191
:1008E800902684317B358631EA2684317508863135
:1008F800EA26843187310E27843103147B0D863133
:10090800EA268431FC01FD019B2C01308431FF244F
:100918008431F9007C087607FA007A088600870196
:10092800790881000130FC070030FD3D9B2C7708D9
:10093800FF3EF900FF30783DFA007A087D02031D7A
:10094800A72C79087C02031CAA2CAB2C892CAC2C74
:1009580000308431FF248431F9007708FF3E7607A0
:10096800FA007A0886008701790881008631FD2619
:1009780084310800F6000E307602031CC42CC52C06
:10098800CA2C0D30F4007408F600CA2C8631902663
:10099800843178308631EA26843140308631EA263F
:1009A8008431F70106307702031CDB2CDC2CDE2CAB
:1009B800FB2CFB2C0630F4007408F0007608863116
:1009C800AB268431BB3E7707F500750886008701A2
:1009D80001088631EA2684310130F4007408F707EB
:1009E80006307702031CF92CFA2CDE2CFB2C8631FE
:1009F800FD2684310800F300F4018731DB278431B8
:100A0800062D062D87318F278431031C0C2D0D2DC3
:100A1800062D8731A1278431031C132D142D062D93
:100A2800152D8731DE2784318731D1278431F200B3
:100A38007208F40073080319222D232D272D8731FE
:100A4800CD2784312D2D8731C92784312D2D2D2D8A
:100A58002D2D87318F278431031C332D342D2D2DD7
:100A6800352D8731DE27843174083A2D0800F500CA
:100A780080307502031C412D422D462D7F30F40035
:100A88007408F50008307302031C4B2D4C2D512DB2
:100A98000730F4007408F300512D86319026853113
:100AA80078308631EA26853100308631EA2685316C
:100AB8007508F4000430F436890B5F2D740810387B
:100AC8008631EA26853175080F398631EA2685315F
:100AD8007308B0388631EA2685318631FD2685319E
:100AE8000800F301003085313B2585318631902699
:100AF800853178308631EA26853140308631EA26DC
:100B08008531F601F70104307702003003197602C7
:100B1800031C8F2D902D922DA42DA42D00308631ED
:100B2800EA2685310130F6070030F73D04307702B8
:100B3800003003197602031CA22DA32D922DA42D9B
:100B48008631FD268531080086319026853178303A
:100B58008631EA268531F301F401003074021B3036
:100B680003197302031CB92DBA2DBC2DD22DD22D19
:100B78007308A03E8600870101088631EA26853180
:100B88000130F3070030F43D003074021B300319C4
:100B98007302031CD02DD12DBC2DD22D8631FD26FC
:100BA80085310800F4007408F2007208F300DC2DA7
:100BB80031009518E02DE12DDC2D151770089100F6
:100BC80070309200F82D15141308F200730886008F
:100BD8008701720881000130F2007208F3070130C2
:100BE800F20072089107F82D0130F102710A031D15
:100BF800FE2DFF2DE72D002E08002000AF005C0819
:100C0800B0005D08B1005E08B2003030A8002808C6
:100C1800A0000330A1000030A2002F088631D7269B
:100C2800863120003008A800A9013108AA00AB01CC
:100C38002A08AB00AA0128082A04AD0029082B04B9
:100C4800AE002E08A7002D08A6002A2E08000034A2
:100C5800AE34D5348034A8343F34D33400344034EF
:100C68008D34143420340034A134C834DA341234C6
:100C78008134CF34D934F134DB3440342E34A434C5
:100C8800A634AF34003400346034603400340034A7
:100C980000343E344134413441343E3422008C0126
:100CA800373021008C00303023008C0004302400C1
:100CB8008C0025008C01373026008C003F3027003F
:100CC8008C0002303C0090000130A00018303D003C
:100CD8009100193090003C00A1010800F300863112
:100CE8009026863178308631EA2686310030863182
:100CF800EA26863173080319822E832E882EAF3098
:100D08008631EA2686318C2EAE308631EA26863147
:100D18008631FD26863108008731D8278631952E01
:100D2800952E873185278631031C9B2E9C2E952E68
:100D38009F2E9F2E9F2E87318F278631031CA52E2D
:100D4800A62E9F2EA72E8731DE2786310800F300B6
:100D5800F201AE2E731CB12EB22EB72E7008F10020
:100D68007108F207B72E0310F00D0310F30C730887
:100D7800031DBF2EC02EAE2EC12E7208C32E080032
:100D8800F9007908F7007708F0000230F8007808D1
:100D9800F1007A308531D62586317B08F6007A084D
:100DA800F500D62E08002000A5002508A30023087A
:100DB800F5002008A4002408F6002208F8002108FD
:100DC800F7005A308431722486310800F200720824
:100DD8008731C0278631F12EF12E87318F27863152
:100DE800031CF72EF82EF12EF92E8731DE278631D7
:100DF80008008731D5278631022F022F87318F27A8
:100E08008631031C082F092F022F0A2F8731DE276E
:100E1800863108008731E1278731132F132F873157
:100E28008F278731031C192F1A2F132F1B2F873158
:100E3800DE27873108002400951A232F242F2E2F10
:100E480094012830950096014F3092002E2F2E2FB6
:100E58002E2F2E2F08008731992787318631522669
:100E6800873187314E2787318731C52787318731C9
:100E7800782787310800073084311824873120000B
:100E88004408D1004308D0004208CF004108CE00F2
:100E98004D2F0800320099019B019D0106309F00EB
:100EA8009E01562F1C1C592F5A2F562F5B2F0800B6
:100EB800F6007608F5007508F000F101F10A7730C0
:100EC8008531D62587317708692F080020005F080B
:100ED80060040319702F712F772F60088A005F084C
:100EE8000A008731772F0800200010100B10E4301B
:100EF800F0000730F1008731B42787312100101442
:100F080008002400140CF000F00C700C0139F100FA
:100F1800710C8E2F08002000110CF000F00C700CE2
:100F28000139F100710C982F0800320091019201EB
:100F380093019401950196010800240014080139D1
:100F4800F000700CA72F0800FE0012001E00FE0B18
:100F5800A92F0034640080010131890BAF2F0034C0
:100F680071082000E0007008DF0008002000101061
:100F780087316A2787310800F00070082400910043
:100F8800080016302100970008002400961616164F
:100F98000800240096121616080024001108D42F01
:100FA8000800240016150800240016140800240060
:100FB80096150800200091110800240096140800D6
:040FC8000800080015
:020000040001F9
:08000E008CFFF3FFFFFFFFFF71
:10E00000F8000700FE001F0006001E00030033009A
:10E0100083003100C3003000630030003300300063
:10E020001E001800FE001F00F8000700000000009E
:10E03000000000000C0030000C0030000E0030002A
:10E04000FF003F00FF003F000000300000003000F4
:10E0500000003000000000001C0030001E003800EE
:10E0600007003C0003003E0003003700830033003C
:10E07000C3003100E3003000770030003E00300084
:10E080001C0030000C000C000E001C0007003800C3
:10E09000C3003000C3003000C3003000C3003000B4
:10E0A000C3003000E70039007E001F003C000E0076
:10E0B000C0000300E000030070000300380003000C
:10E0C0001C0003000E00030007000300FF003F00D8
:10E0D000FF003F0000000300000003003F000C00B1
:10E0E0007F001C00630038006300300063003000D4
:10E0F000630030006300300063003000E30038004C
:10E10000C3001F0083000F00C0000F00F0001F00BD
:10E11000F8003900DC003000CE003000C7003000CD
:10E12000C3003000C3003000C300390080001F006E
:10E1300000000F00030000000300000003000000C7
:10E140000300300003003C0003000F00C300030085
:10E15000F30000003F0000000F000000030000007B
:10E1600000000F00BC001F00FE003900E700300077
:10E17000C3003000C3003000C3003000E7003000AF
:10E18000FE003900BC001F0000000F003C00000032
:10E190007E000000E7003000C3003000C300300004
:10E1A000C3003800C3001C00C3000E00E7000700D6
:10E1B000FE000300FC000000F0000300FC000F0064
:10E1C0000E001C0007003800030030000300300080
:10E1D00003003000070038000E001C000C000C008B
:04E1E000000000003B
:00000001FF
